:04000000020E3A3280
:01000B0032C2
:0100130032BA
:01001B0032B2
:03002300020130A7
:01002B0032A2
:01003300329A
:03003B0002019C23
:03004300020208AE
:100E3A0075815D120E36E582600302004B7545002E
:100E4A00754600754700754800754900754A007572
:100E5A004B00754C00754D00754E00754F00755965
:100E6A0000755A00C200C201C202C203C204C2050E
:070E7A00C206C20702004B93
:10004B00120C9780FE907FDDE4F0907FDF7402F05E
:10005B00907FC7E4F0907FC6F0907FAA74FFF0907A
:10006B007FDE7402F0907FB6E4F0907FA974FFF00E
:10007B00D2E875D820907FAB74FFF0759100907F1C
:10008B00AFE4F0907FAE741DF0907F927402F0227B
:10009B00907F957403F0907F9E74FFF0907F98741F
:1000AB0003F0907F94740CF0907F9D740DF0907F13
:1000BB0097740CF0907F9F7401F022740F5589FA9E
:1000CB0074204AF589758DFE758BFED28EC2AC7588
:1000DB009850C298C299D2ACC2AE75C050C2C0C2C1
:1000EB00C1D2AE22753700753600753200753100FE
:1000FB007530007535007534007533007539007532
:10010B003800753C00753B00753A00753E00753D37
:10011B0000754000753F0075430075420075410046
:10012B002253D8EF22C0E0C0F0C082C083C0D0758C
:10013B00D008309912C299B203E53CB40109753C61
:10014B0000753B00753A0030983CAA99C298BAFEEC
:10015B00028002B202C3E5379536FBBB4002802614
:10016B0074012537F537E53714FB530B3F75F00258
:10017B00EBA4FBACF0EB2480F582EC347BF5837BBA
:10018B0000EAF0A3EBF0D0D0D083D082D0F0D0E057
:10019B0032C0E0C0F0C082C083C0D075D01030C177
:1001AB0012C2C1B206E543B40109754300754200A2
:1001BB0075410030C03CAAC1C2C0BAFE028002B277
:1001CB0005C3E53E953DFBBB400280267401253EF1
:1001DB00F53EE53E14FB53133F75F002EBA4FBAC6D
:1001EB00F0EB2400F582EC347CF5837B00EAF0A382
:1001FB00EBF0D0D0D083D082D0F0D0E032C0E0C0D2
:10020B00F0C082C083C0D075D0185391EF907FABF4
:10021B00E0FA30E008907FAB7401F0D200907FAB36
:10022B00E0FA30E106907FAB7402F0907FABE0FA1E
:10023B0030E206907FAB7404F0907FABE0FA30E3D2
:10024B0008907FAB7408F0D201907FABE0FA30E4FA
:10025B000F907FAB7410F075320075310075300064
:10026B00907FA9E0FA30E10F907FA97402F075320C
:10027B0000753100753000907FAAE0FA30E11390E1
:10028B007FAA7402F0907FC7E0FA8A347533007549
:10029B003501D0D0D083D082D0F0D0E032907FE83F
:1002AB00E0FABA8002800DBA81028027BA820280FE
:1002BB003B02033BE4A2073325E0FA907F00F0906A
:1002CB007F01E4F0907FB57402F0907FB47402F07C
:1002DB00020341907F00E4F0907F01E4F0907FB542
:1002EB007402F0907FB47402F0020341907FECE053
:1002FB00FAC4540FFA530208907FECE05407FB4208
:10030B000275F002EAA4FAABF0EA24B4F582EB34FE
:10031B007FF583E0FA5302FD907F00EAF0907F01B6
:10032B00E4F0907FB57402F0907FB47402F0800615
:10033B00907FB47401F022907F00E544F0907FB57C
:10034B007401F0907FB47402F022907F00E4F0907F
:10035B007FB57401F0907FB47402F022907FEAE0D5
:10036B00FA74015AF544907FB47402F022907FB472
:10037B007402F022907FE8E0FABA00028008BA0219
:10038B0002801F0203EE907FEAE0FABA010BC2076C
:10039B00907FB47402F00203F4907FB47401F00206
:1003AB0003F4907FEAE0FABA0031907FECE0FAC4F4
:1003BB00540FFA530208907FECE05407FB4202758E
:1003CB00F002EAA4FAABF0EA24B4F582EB347FF541
:1003DB0083E4F0907FB47402F0800E907FB47401CC
:1003EB00F08006907FB47401F022907FE8E0FABAB7
:1003FB0000028008BA0202801F020465907FEAE0C7
:10040B00FABA010BD207907FB47402F002046B901E
:10041B007FB47401F002046B907FEAE0FABA003209
:10042B00907FECE0FAC4540FFA530208907FECE093
:10043B005407FB420275F002EAA4FAABF0EA24B4CB
:10044B00F582EB347FF5837401F0907FB47402F086
:10045B00800E907FB47401F08006907FB47401F02D
:10046B0022907FEBE0FA907FEAE0FB7C007D007E40
:10047B0000EC24C6F582ED340CF583E493FF700396
:10048B000204CF74012CF8E43DF9E824C6F582E9A7
:10049B00340CF583E493F8B5021F8E000EE8B50318
:1004AB0018EC24C6F8ED340CF9895D755E00907F6D
:1004BB00D4E55DF0907FD5E8F07800EF2CFCE83DBB
:1004CB00FD02047C907FB47402F022907FE9E0FA85
:1004DB00BA0002802DBA0102802DBA0302802DBA18
:1004EB000502804CBA06028028BA08028028BA0995
:1004FB00028028BA0A028028BA0B028028BA0C2A7A
:10050B00802E1202A8802912037F80241203F5800B
:10051B001F12046C801A120342801512036780109D
:10052B00120355800B1203788006907FB47401F090
:10053B00C200907FAEE0FA907FAE74024AF022AA1E
:10054B0082BAF000500EEAC4540FFB24F8900E0C44
:10055B0093FB800953020FEA900E1393FB8B8222BD
:10056B00C3E54A94F05009E54AC4540FF582803430
:10057B00E54AB4F019E54914FA2446F88602BAF7AD
:10058B0004AA4980027A0074042AF5828016C3E516
:10059B004A94F8500CE54914900E2393FA8A828002
:1005AB000375820F22AA8274012531F531E53114CE
:1005BB00543FFB2480F582E4347EF583E55DC4541F
:1005CB00F0440FFBF074012531F531E53114543F44
:1005DB00FB2480F582E4347EF583EAF07401253147
:1005EB00F531E53114543FFA2480F582E4347EF57D
:1005FB0083E4F074012531F531E53114543FFA24CD
:10060B0080F582E4347EF583E4F022AA82854A8267
:10061B00C00212054AAB82D002EB70030206C5740E
:10062B00012531F531E53114543F2480FBE4347E50
:10063B00FCC002C003C00412056BAD82D004D00312
:10064B00D002EAC454F0FA42058B828C83EDF0742D
:10065B00012531F531E53114543FFA2480F582E45C
:10066B00347EF583E546F074012531F531E531141F
:10067B00543FFA2480F582E4347EF583E547F07429
:10068B00012531F531E53114543FFA2480F582E42C
:10069B00347EF583E548F0754800754700754600D4
:1006AB00754900C3E54A94F05006754901854A46E1
:1006BB00C374F0954A5003754A0022AA82E545603F
:1006CB000F85545D8A82C0021205B0D00202075416
:1006DB00C374F79A501D8A82C00212054AAB82D0AE
:1006EB0002EB600C85545D8A82C0021205B0D00209
:1006FB00020754C3747F9AE433FB601EE54AB4F0DF
:10070B0019AC490549EC2446A8E076F7855482C01C
:10071B0002C003120616D003D002EB60058A4A759D
:10072B004900E54A600BAB490549EB2446A8E0A616
:10073B0002E54A6014854A8212054AAA82C3E5493A
:10074B009A400685548212061622C3E54F94F05048
:10075B0009E54FC4540FF5828034E54FB4F019E529
:10076B004E14FA244BF88602BAF704AA4E80027A8A
:10077B000074042AF5828016C3E54F94F8500CE5FB
:10078B004E14900E2393FA8A82800375820F22AA4D
:10079B008274012531F531E53114543FFB2480F58A
:1007AB0082E4347EF583E55DC454F0440FFBF074B2
:1007BB00012531F531E53114543FFB2480F582E4FA
:1007CB00347EF583EAF074012531F531E5311454AB
:1007DB003FFA2480F582E4347EF583E4F07401253E
:1007EB0031F531E53114543FFA2480F582E4347E3F
:1007FB00F583E4F022AA82854F82C00212054AAB30
:10080B0082D002EB70030208AF74012531F531E59C
:10081B003114543F2480FBE4347EFCC002C003C07F
:10082B0004120755AD82D004D003D002EAC454F0B1
:10083B00FA42058B828C83EDF074012531F531E59D
:10084B003114543FFA2480F582E4347EF583E54B72
:10085B00F074012531F531E53114543FFA2480F55C
:10086B0082E4347EF583E54CF074012531F531E5F6
:10087B003114543FFA2480F582E4347EF583E54D40
:10088B00F0754D00754C00754B00754E00C3E54F70
:10089B0094F05006754E01854F4BC374F0954F5035
:1008AB0003754F0022AA82E545600F85585D8A8249
:1008BB00C00212079AD00202093EC374F79A501D68
:1008CB008A82C00212054AAB82D002EB600C8558BB
:1008DB005D8A82C00212079AD00202093EC3747F5E
:1008EB009AE433FB601EE54FB4F019AC4E054EECA9
:1008FB00244BA8E076F7855882C002C0031208008B
:10090B00D003D002EB60058A4F754E00E54F600BAC
:10091B00AB4E054EEB244BA8E0A602E54F601485C9
:10092B004F8212054AAA82C3E54E9A400685588229
:10093B0012080022E53260028043C3E5379536FA90
:10094B00BA00028038C3E5319530FABA4002802DE7
:10095B0074012536F53614FA53023F75F002EAA4FA
:10096B00FAABF0EA2480F582EB347BF583E0FAA353
:10097B00E0FB7554008A821206C602093FE532601D
:10098B00028043C3E53E953DFABA00028038C3E5C9
:10099B00319530FABA4002802D7401253DF53D1496
:1009AB00FA53023F75F002EAA4FAABF0EA2400F521
:1009BB0082EB347CF583E0FAA3E0FB7558018A8265
:1009CB001208B0020988E5326002801AC3E531953E
:1009DB0030FABA0002800F753000753201907FB784
:1009EB00C3E5319530F022E535B401028003020AEC
:1009FB00A1C3E5349533FABA0003020AA1C3E53962
:100A0B009538FABA4003020AA1C3E540953FFABAFA
:100A1B004003020AA174012533F53314FA53023F44
:100A2B0074FC5AFB2440F582E4347EF583E0540FCA
:100A3B00900E2693FCEB2440F582E4347EF583E0A4
:100A4B00FBC4540FFB53030FEA2440F582E4347EBE
:100A5B00F583E0FD530203EA7003020AA1C3EC9A8B
:100A6B004034BB001774012539F539E53914543F6F
:100A7B00FA2440F582E4347BF583EDF0BB01177467
:100A8B00012540F540E54014543FFA2480F582E4FB
:100A9B00347CF583EDF0E535B40117C3E5349533BC
:100AAB00FABA000E753500753400753300907FC7A8
:100ABB00E4F022C3E5399538FABA00028045E53CEB
:100ACB006002803F74012538F53814543FFA2440F6
:100ADB00F582E4347BF583E0FAE545700BE559606C
:100AEB0007EAB55903020B5DC3747F9A500DBAF038
:100AFB000050048A0380027B008B598A99753A0057
:100B0B00753C01C3E540953FFABA00028044E543CA
:100B1B006002803E7401253FF53F14543FFA248058
:100B2B00F582E4347CF583E0FAE545700AE55A601A
:100B3B0006EAB55A02801BC3747F9A500DBAF000B7
:100B4B0050048A0380027B008B5A8AC17541007561
:100B5B00430122AA82AB83C3E49AE49B50071ABADF
:100B6B00FFF51B80F222907FD6E0FA907FD674FBC4
:100B7B005AF0907FD6E0FA907FD674084AF0907FB7
:100B8B00D6E0FA907FD674024AF090F401120B5E15
:100B9B00907FD6E0FA907FD674F75AF0907FD6E02C
:100BAB00FA907FD674044AF022907FAFE0FA907FE0
:100BBB00AF74084AF0907FD6E0FA907FD674804AE3
:100BCB00F0438701200708907FD6E0FA20E7E690F4
:100BDB007FD6E0FA30E71E907FD6E0FA907FD6748E
:100BEB00014AF0901400120B5E907FD6E0FA907FD2
:100BFB00D674FE5AF0C20122907FD9E0FA03035457
:100C0B003FFA907FD9E0FBC40354F8FB907FD8E008
:100C1B00FCC4035407FC420353031F907FD8E0FC32
:100C2B0053041FC3EC9BE433FBEAB503047401804C
:100C3B0001E4C36001B39204907FD8E0FA53020F32
:100C4B00BA0008C206C205C203C2023004047A000D
:100C5B0080027A403002047B0080027B20EB420250
:100C6B003003047B0080027B10EB42023005047BD7
:100C7B000080027B08EB42023006047B0080027B83
:100C8B0004EB4202907F9874034AF02275440012E1
:100C9B0000EF12005012009B1200C6D2AF120B7164
:100CAB003000031204D6300103120BB4120C0312E2
:100CBB00093F1209F2120ABE80E62212011001004E
:100CCB0000004063071011010001020301090285B6
:100CDB0000020100003209040000000101000009BC
:100CEB0024010001090001010904010002010300B4
:100CFB000007240100016100062402010100062403
:100D0B000202020006240201030006240202040070
:100D1B000924030105010201000924030206010154
:100D2B000100092403010701020100092403020841
:100D3B000101010009050102400000000006250128
:100D4B000201030905810240000000000625010293
:100D5B0005070403090410034D00690064006900D2
:100D6B006D0061006E001C034D006900640069009A
:100D7B00730070006F007200740020003200780066
:100D8B0032007E0343006F0070007900720069002F
:100D9B0067006800740020002800470050004C00DA
:100DAB007600320029002000320030003000310084
:100DBB0020006200790020004C006100720073007B
:100DCB00200044006F0065006C006C006500200083
:100DDB003C006C006100720073002E0064006F0019
:100DEB0065006C006C00650040006F006E002D000C
:100DFB006C0069006E0065002E00640065003E000B
:100E0B0000030303030202030302030200000100B9
:100E1B0001000101010001010502030000020303AF
:0F0E2B0001020303030303020203017582002285
:00000001FF
