:04000000020AAE3210
:01000B0032C2
:0100130032BA
:01001B0032B2
:0300230002010EC9
:01002B0032A2
:01003300329A
:01003B003292
:0300430002017A3D
:100AAE0075814C120AAAE582600302004B753E0066
:100ABE00753F007540007541007542007543007525
:100ACE004900C200C201C202C203C204C205020032
:010ADE004BCC
:10004B0012092B80FE907FDDE4F0907FDF7402F0CD
:10005B00907FC7E4F0907FC6F0907FAA74FFF0907A
:10006B007FDE7402F0907FB6E4F0907FA974FFF00E
:10007B00D2E875D820907FAB74FFF0759100907F1C
:10008B00AFE4F0907FAE741DF0907F927402F0227B
:10009B00907F957403F0907F9E7473F0907F9874AB
:1000AB0003F0907F94E4F0907F9D7401F0907F9724
:1000BB00E4F0907F9F7401F022740F5589FA74203D
:1000CB004AF589758DFE758BFED28EC2AC75985034
:1000DB00C298C299D2AC22753700753600753200C2
:1000EB00753100753000753500753400753300754A
:1000FB003900753800753C00753B00753A0022538A
:10010B00D8EF22C0E0C0F0C082C083C0D075D00849
:10011B00309912C299B203E53CB40109753C0075E4
:10012B003B00753A0030983CAA99C298BAFE0280FF
:10013B0002B202C3E5379536FBBB40028026740141
:10014B002537F537E53714FB530B3F75F002EBA45E
:10015B00FBACF0EB2480F582EC347BF5837B00EA7F
:10016B00F0A3EBF0D0D0D083D082D0F0D0E032C06F
:10017B00E0C0F0C082C083C0D075D0185391EF900F
:10018B007FABE0FA30E008907FAB7401F0D20090C7
:10019B007FABE0FA30E106907FAB7402F0907FAB5F
:1001AB00E0FA30E206907FAB7404F0907FABE0FA9C
:1001BB0030E308907FAB7408F0D201907FABE0FA8C
:1001CB0030E40F907FAB7410F07532007531007511
:1001DB003000907FA9E0FA30E10F907FA97402F014
:1001EB00753200753100753000907FAAE0FA30E16E
:1001FB0013907FAA7402F0907FC7E0FA8A347533AC
:10020B0000753501D0D0D083D082D0F0D0E03290C1
:10021B007FE8E0FABA8002800DBA81028027BA82A9
:10022B0002803B0202ADE4A2053325E0FA907F0089
:10023B00F0907F01E4F0907FB57402F0907FB4747E
:10024B0002F00202B3907F00E4F0907F01E4F090A3
:10025B007FB57402F0907FB47402F00202B3907F0A
:10026B00ECE0FAC4540FFA530208907FECE0540709
:10027B00FB420275F002EAA4FAABF0EA24B4F58271
:10028B00EB347FF583E0FA5302FD907F00EAF090A8
:10029B007F01E4F0907FB57402F0907FB47402F0AC
:1002AB008006907FB47401F022907F00E53DF090C2
:1002BB007FB57401F0907FB47402F022907F00E45C
:1002CB00F0907FB57401F0907FB47402F022907FB0
:1002DB00EAE0FA74015AF53D907FB47402F0229073
:1002EB007FB47402F022907FE8E0FABA0002800833
:1002FB00BA0202801F020360907FEAE0FABA010B98
:10030B00C205907FB47402F0020366907FB474014F
:10031B00F0020366907FEAE0FABA0031907FECE0DE
:10032B00FAC4540FFA530208907FECE05407FB42D7
:10033B000275F002EAA4FAABF0EA24B4F582EB34CE
:10034B007FF583E4F0907FB47402F0800E907FB45D
:10035B007401F08006907FB47401F022907FE8E086
:10036B00FABA00028008BA0202801F0203D7907FFC
:10037B00EAE0FABA010BD205907FB47402F00203E3
:10038B00DD907FB47401F00203DD907FEAE0FABAEE
:10039B000032907FECE0FAC4540FFA530208907FBE
:1003AB00ECE05407FB420275F002EAA4FAABF0EA68
:1003BB0024B4F582EB347FF5837401F0907FB47431
:1003CB0002F0800E907FB47401F08006907FB474BD
:1003DB0001F022907FEBE0FA907FEAE0FB7C007D5E
:1003EB00007E00EC245AF582ED3409F583E493FF8B
:1003FB00700302044174012CF8E43DF9E8245AF52A
:10040B0082E93409F583E493F8B5021F8E000EE8F8
:10041B00B50318EC245AF8ED3409F9894C754D00E5
:10042B00907FD4E54CF0907FD5E8F07800EF2CFC72
:10043B00E83DFD0203EE907FB47402F022907FE959
:10044B00E0FABA0002802DBA0102802DBA030280B5
:10045B002DBA0502804CBA06028028BA0802802801
:10046B00BA09028028BA0A028028BA0B028028BA7D
:10047B000C2A802E12021A80291202F180241203F8
:10048B0067801F1203DE801A1202B480151202D984
:10049B0080101202C7800B1202EA8006907FB474A0
:1004AB0001F0C200907FAEE0FA907FAE74024AF08A
:1004BB0022AA82BAF000500EEAC4540FFB24F89023
:1004CB000A8093FB800953020FEA900A8793FB8BF8
:1004DB008222C3E54394F05009E543C4540FF582DF
:1004EB008034E543B4F019E54214FA243FF8860250
:1004FB00BAF704AA4280027A0074042AF5828016A5
:10050B00C3E54394F8500CE54214900A9793FA8A8A
:10051B0082800375820F22AA8274012531F531E5A1
:10052B003114543FFB2480F582E4347EF583E54C93
:10053B00C454F0440FFBF074012531F531E531144F
:10054B00543FFB2480F582E4347EF583EAF074019A
:10055B002531F531E53114543FFA2480F582E4342A
:10056B007EF583E4F074012531F531E53114543F08
:10057B00FA2480F582E4347EF583E4F022AA8285A6
:10058B004382C0021204BCAB82D002EB70030206A2
:10059B003774012531F531E53114543F2480FBE4E8
:1005AB00347EFCC002C003C0041204DDAD82D00453
:1005BB00D003D002EAC454F0FA42058B828C83ED4F
:1005CB00F074012531F531E53114543FFA2480F5EF
:1005DB0082E4347EF583E53FF074012531F531E596
:1005EB003114543FFA2480F582E4347EF583E540E0
:1005FB00F074012531F531E53114543FFA2480F5BF
:10060B0082E4347EF583E541F07541007540007559
:10061B003F00754200C3E54394F0500675420185D7
:10062B00433FC374F09543500375430022AA82E500
:10063B003E600F85484C8A82C002120522D002020E
:10064B0006C6C374F79A501D8A82C0021204BCAB53
:10065B0082D002EB600C85484C8A82C002120522C4
:10066B00D0020206C6C3747F9AE433FB601EE543D7
:10067B00B4F019AC420542EC243FA8E076F785486C
:10068B0082C002C003120588D003D002EB60058A3A
:10069B0043754200E543600BAB420542EB243FA898
:1006AB00E0A602E54360148543821204BCAA82C310
:1006BB00E5429A400685488212058822E53260029F
:1006CB008043C3E5379536FABA00028038C3E5316B
:1006DB009530FABA4002802D74012536F53614FA9E
:1006EB0053023F75F002EAA4FAABF0EA2480F582DC
:1006FB00EB347BF583E0FAA3E0FB7548008A8212AA
:10070B0006380206C7E5326002801AC3E531953020
:10071B00FABA0002800F753000753201907FB7C3B3
:10072B00E5319530F022E535B4010280030207A1D3
:10073B00C3E5349533FABA00030207A1C3E5399533
:10074B0038FABA40030207A174012533F53314FAC2
:10075B0053023F74FC5AFB2440F582E4347EF5834C
:10076B00E0540F900A9A93FBEA2440F582E4347E1E
:10077B00F583E0FC530203EA601CC3EB9A40177449
:10078B00012539F539E53914543FFA2440F582E453
:10079B00347BF583ECF0E535B40117C3E5349533C1
:1007AB00FABA000E753500753400753300907FC7AB
:1007BB00E4F022C3E5399538FABA00028044E53CEF
:1007CB006002803E74012538F53814543FFA2440FA
:1007DB00F582E4347BF583E0FAE53E700AE5496087
:1007EB0006EAB54902801BC3747F9A500DBAF0001C
:1007FB0050048A0380027B008B498A99753A0075F5
:10080B003C0122AA82AB83C3E49AE49B50071ABA39
:10081B00FFF51B80F222907FD6E0FA907FD674FB17
:10082B005AF0907FD6E0FA907FD674084AF0907F0A
:10083B00D6E0FA907FD674024AF090F40112080EBB
:10084B00907FD6E0FA907FD674F75AF0907FD6E07F
:10085B00FA907FD674044AF022907FAFE0FA907F33
:10086B00AF74084AF0907FD6E0FA907FD674804A36
:10087B00F0438701200508907FD6E0FA20E7E69049
:10088B007FD6E0FA30E71E907FD6E0FA907FD674E1
:10089B00014AF090140012080E907FD6E0FA907F78
:1008AB00D674FE5AF0C20122907FD9E0FA030354AA
:1008BB003FFA907FD9E0FBC40354F8FB907FD8E05C
:1008CB00FCC4035407FC420353031F907FD8E0FC86
:1008DB0053041FC3EC9BE433FBEAB50304740180A0
:1008EB0001E4C36001B39204907FD8E0FA53020F86
:1008FB00BA0004C203C2023002047A0080027A20DA
:10090B003003047B0080027B40EB42023004047B0B
:10091B000080027B10EB4202907F9874034AF02216
:10092B00753D001200E212005012009B1200C4D25F
:10093B00AF1208213000031204483001031208647F
:10094B001208B31206C71207311207BE80E6221235
:10095B0001100100000040630710110100010203A8
:10096B0001090265000201000032090400000001C8
:10097B000100000924010001090001010904010023
:10098B0002010300000724010001410006240201BB
:10099B0001000624020202000924030103010201E3
:1009AB0000092403020401010100090501024000B2
:1009BB00000000052501010109058102400000002E
:1009CB000005250101030403090410034D00690010
:1009DB00640069006D0061006E001C034D0069002E
:1009EB0064006900730070006F00720074002000D7
:1009FB003100780031007E0343006F0070007900F6
:100A0B00720069006700680074002000280047002E
:100A1B0050004C00760032002900200032003000DC
:100A2B003000310020006200790020004C00610092
:100A3B0072007300200044006F0065006C006C00B6
:100A4B00650020003C006C006100720073002E00FA
:100A5B0064006F0065006C006C00650040006F0067
:100A6B006E002D006C0069006E0065002E006400A6
:100A7B0065003E00000303030302020303020302AB
:100A8B00000001000100010101000101050203004A
:100A9B0000020303010203030303030202030175B4
:030AAB00820022A4
:00000001FF
